:020000040800F2
:1000000080B4012075890008DD030008DF030008C3
:10001000E3030008E7030008EB030008000000000A
:100020000000000000000000000000009D0100082A
:10003000EF03000800000000F9010008FDB500080A
:100040008F8900088F8900088F8900088F89000830
:100050008F8900088F890008F98700088F890008B8
:10006000198800083F8800086B8800088F890008FD
:100070008F8900088F8900088F8900088F89000800
:100080008F8900088F8900088F8900088F890008F0
:10009000FD7D00088F8900088F8900088F8900087E
:1000A0008F8900088F8900088F8900088F890008D0
:1000B0008F890008877C00088F8900088F890008D5
:1000C0008F8900088F8900088F8900088F890008B0
:1000D0008F8900088F890008EFB700088F89000812
:1000E0008F8900088F8900088F8900088F89000890
:1000F0008F8900088F8900088F8900088F89000880
:100100008F8900088F8900088F8900088F8900086F
:100110008F8900088F8900088F8900088F8900085F
:100120008F8900088F8900088F8900088F8900084F
:100130008F8900088F8900088F8900088F8900083F
:100140008F8900088F8900088F8900088F8900082F
:100150008F8900088F8900088F8900088F8900081F
:100160008F8900088F8900088F8900088F8900080F
:100170008F8900088F8900088F8900088F890008FF
:100180008F8900088F890008DFF80CD010F080F804
:1001900000480047F102000880B401202C4B196888
:1001A0000868B0E8F04F80F30988BFF36F8F4FF015
:1001B000000080F3118870470000000008480068C4
:1001C000006880F308884FF0000080F3148862B65E
:1001D00061B6BFF34F8FBFF36F8F00DF00BF00BF6B
:1001E00008ED00E0DFF80C00016841F470010160E7
:1001F000704700BF88ED00E0EFF30980BFF36F8F19
:10020000134B1A681EF0100F08BF20ED108A20E96A
:10021000F04F106009B44FF0500080F31188BFF325
:100220004F8FBFF36F8F0DF00AFE4FF0000080F389
:10023000118809BC19680868B0E8F04F1EF0100F6B
:1002400008BFB0EC108A80F30988BFF36F8F704746
:10025000180A0020EFF30580704700000CE04748C3
:10026000006808B9012000E000204449086008F057
:100270004FFAFA200DF0B5FCF1E704E013F060F955
:1002800014200DF0AEFCF9E71CB50446012108036B
:1002900009F0FAF911F0D8FE042017F055FE0FF01E
:1002A0001CFA3748042100238A01CDE9001035A14A
:1002B00037480DF01CFA3748052100238022CDE98C
:1002C000001035A1AFF24D000DF011FA35480621AE
:1002D00000234022CDE9001033A1AFF27F000DF0E2
:1002E00006FA344800680DF050FA0FF019FA1CBDF8
:1002F0001CB5A8200BF08AF94FF4407008F04CFBB5
:100300004FF4E1300BF01DFA5321312007F080FC4F
:1003100003F003FD02F0CFFD01F0C6FA08F0FCF98E
:1003200008F0B3FA0020462301220221009007F0D2
:10033000E9FC07F038FE01F0D7FA00200FF0FDFAD3
:1003400001200FF0FAFA02200FF0F7FA4FF4FA71D9
:10035000042008F0CBF918A01FF052FA154801212B
:1003600000234022CDE9001019A1AFF2E3000DF007
:10037000BEF90DF0E0FE00201CBD0000A482424248
:100380000C000020636F7665725F7461736B000010
:100390003B07000804000020746F7563685F746198
:1003A000736B0000080000207764675F7461736BF3
:1003B000000000000000002053797374656D20492F
:1003C000732052756E6E696E672E0D0A0000000074
:1003D00073746172745F7461736B0000704700BF67
:1003E000FEE700BFFEE700BFFEE700BFFEE7704785
:1003F0000CB50020019000907648006840F48030F1
:100400007449086000BF7348006800F40030009031
:100410000198401C0190009818B90198B0F5A04FC0
:10042000F1D16C48006800F4003010B10120009058
:1004300001E0002000900098012846D16548403036
:10044000006840F0805063494031086062480068AD
:1004500040F44040604908605E48083000685D49EB
:10046000083108600846006840F40040086008460B
:10047000006840F4A05008605848091F0860081F31
:10048000006840F08070091F086000BF5148006894
:1004900000F000700028F9D040F205705049086063
:1004A0004C480830006820F003004A4908310860D1
:1004B0000846006840F00200086000BF4548083068
:1004C000006800F00C000828F8D10CBD10B54548B4
:1004D000006840F47000434908603E48006840F0FE
:1004E00001003C49086000203A4908310860394859
:1004F00000683D490840374908603C48091D0860CC
:10050000081F006820F48020091F0860002031497E
:100510000C310860FFF76CFF4FF000603149803903
:10052000086010BD70B500200022022300240221C3
:10053000284D08352D6805F00C0020B1042806D0A0
:10054000082834D107E02A4D2A4E356033E02A4D81
:10055000284E35602FE01F4D2D1D2D68C5F38054AA
:100560001C4D2D1D2D6805F03F0154B1224DB5FBEA
:10057000F1F5184E361D3668C6F3881605FB06F2EF
:1005800009E01B4DB5FBF1F5124E361D3668C6F37A
:10059000881605FB06F20F4D2D1D2D68C5F301458C
:1005A0006D1C6B00B2FBF3F5124E356003E0104D8D
:1005B000104E356000BF00BF064D08352D68C5F3ED
:1005C00003150E4E705D0B4D2D68C540094E35600C
:1005D00070BD000000380240007000400854400721
:1005E000003C024088ED00E0FFFFF6FE10300024E2
:1005F0000024F4001000002000127A0014000020F3
:1006000070B52DED048BB0EE408AF0EE608A51ECAF
:10061000180B0FF07AFCC5B29FED100B53EC102BAA
:1006200051EC180B0FF083FB41EC190B0FF06DFC34
:100630000A2190FBF1F201FB1200C4B205EB850028
:1006400004EB4000074951F82000BDEC048B70BD5D
:100650000146054850F821007047000000000000E6
:1006600000002440240000201C0800201CB5044683
:100670004FF40040A2494FF4A0734FF4F072CDE95B
:1006800000100021084611F051FA1CBD70B5044657
:1006900020680F2802D01D2849D103E02046FFF72B
:1006A000E5FF48E0656840F60101606816F074FEF9
:1006B000054694A1284616F01CF99549284616F0DF
:1006C00001F90E21284616F03EF96FF07F412846C9
:1006D00016F04EF940F60201606816F05DFE054620
:1006E0008CA1284616F005F98C49284616F040F9E9
:1006F0000E21284616F027F98949284616F0E2F817
:1007000040F60301606816F047FE054685A12846BD
:1007100016F0EFF88149284616F02AF90E212846EE
:1007200016F011F98249284616F0CCF803E020466D
:1007300016F0EAFC00BF00BF70BD7CB50646042081
:1007400017F002FC002017F011FC16F00FFE054612
:10075000002000902B46774A04210190764810F043
:100760002DFE04464FF4FA7010F07AFF0121204666
:1007700011F0D2FA0322002101200BF05EFF6F4935
:1007800008600846006830B100231A4619466B48D5
:1007900000680CF04FF80322002101200BF04DFF00
:1007A000674908600846006830B100231A461946B8
:1007B000634800680CF03EF80322002101200BF092
:1007C0003CFF604908600846006830B100231A46C3
:1007D00019465C4800680CF02DF803220021012026
:1007E0000BF02BFF584908600846006830B1002321
:1007F0001A461946544800680CF01CF803220021E0
:1008000001200BF01AFF514908600846006830B11A
:1008100000231A4619464D4800680CF00BF80322D5
:10082000002101200BF009FF4949086008460068D3
:1008300030B100231A461946454800680BF0FAFF0C
:1008400000213E4800680CF038F900213C4800685F
:100850000CF033F900213B4800680CF02EF9002120
:10086000394800680CF029F90021384800680CF07C
:1008700024F90021364800680CF01FF900231A46BD
:1008800019462E4800680BF0D5FF0EF026FF3148C0
:1008900004210023CA01CDE900102FA131480CF03A
:1008A00026FF0020042103460A02CDE900102EA1F4
:1008B00032480CF01CFF3248042100230A02CDE923
:1008C000001030A133480CF012FF2D4800680DF0E5
:1008D000EFFA314804210023CA01CDE900102FA10D
:1008E00032480CF004FF2C4800680DF0E1FA0020BB
:1008F0000CF04BFF0EF014FF642010F0B1FE7CBD35
:100900005838C50053504545444F4D455452450055
:1009100040C002085A45414C45430000D5D5D5009A
:10092000505B02084C6F6164696E672E2E2E0000CA
:1009300018D602088D0600083CFE01081C0900209C
:100940002009002024090020280900202C0900206B
:1009500030090020100900204D61696E5F57696EF3
:10096000646F7700ED0C000843414E5F4D73674D97
:10097000616E6970756C6174696F6E003980000812
:10098000140900205265636F72645F57696E646F6B
:10099000770000005D10000818090020436F6E7496
:1009A000726F6C5F50616E656C000000211800086A
:1009B00010B52DED028B84B004464FF40040FE4983
:1009C0004FF4A0734FF4F072CDE9001000210846F7
:1009D00011F0ACF80020F94907224B23CDE90021A2
:1009E00002904FF4E6720F214FF4827011F060F81C
:1009F0000020F24907229123CDE9002102904FF413
:100A0000E67255214FF4827011F052F8EC4812F062
:100A1000F9F84AF2FF5012F0D8F8022012F07CF9EF
:100A200014222321E7A010F00BFF6FF07F4012F09B
:100A3000CCF8022012F070F9E74812F0E3F85021E8
:100A4000232011F0F1FAE54890ED001BB0EE410AC9
:100A5000F0EE610A51EC100B0FF0D2FA08EE100A1A
:100A600001210420B0EE480A10F04DFEDC4812F0DF
:100A7000C9F8DC49487802232A2240F2091110F013
:100A800027FED849087802232A2240F2311110F0BB
:100A90001FFE2A2240F22711D3A010F0D1FE7021B0
:100AA00040F2091011F0C0FACC4890ED081BB0EEEE
:100AB000410AF0EE610A51EC100B0FF0A1FA08EEBA
:100AC000100A01210720B0EE480A10F01CFE702227
:100AD0004FF4BE71C5A010F0B3FEC54812F092F8F5
:100AE0004AF2FF5012F071F8582240F20911C1A0E9
:100AF00010F0A6FE122240F20911C1A010F0A0FED3
:100B000094222321C1A010F09BFEB94812F07AF87C
:100B10004AF2FF5012F059F8D2222321BFA010F060
:100B20008FFEF0222321C0A010F08AFE4FF48772BE
:100B30002321C0A010F084FEB4222321BFA010F016
:100B40007FFE4FF6FF7012F040F8D2218C2011F09A
:100B50006BFAA24890ED041BB0EE410AF0EE610A78
:100B600051EC100B0FF04CFA08EE100A0121042092
:100B7000B0EE480A10F0C7FDF0218C2011F054FAB5
:100B8000964890ED061BB0EE410AF0EE610A51EC7A
:100B9000100B0FF035FA08EE100A01210420B0EE18
:100BA000480A10F0B0FDB4218C2011F03DFA8B48BA
:100BB00090ED021BB0EE410AF0EE610A51EC100B11
:100BC0000FF01EFA08EE100A01210420B0EE480AC8
:100BD00010F099FD4FF487718C2011F025FA7F48B1
:100BE000008D00EE900AF8EE600AB0EE600A012176
:100BF000042010F088FD04B0BDEC028B10BD2DE97F
:100C0000F041044620680F2804D01D2806D026286D
:100C100065D121E02046FFF7CBFE00BF676840F6B4
:100C20000101606816F0B8FB0746874938460FF0A7
:100C300057FD86A138460FF070FD40F6030160684D
:100C400016F0AAFB074683A138460FF066FD7E49E1
:100C500038460FF045FD46E0A06816F004FC064655
:100C6000E568A6F6010010B1022836D11AE0012D80
:100C700002D0022D14D100E012E000231A461946DA
:100C8000774800680BF0D6FD00231A4619467548D0
:100C900000680BF0CFFD744800680DF095F900BFB7
:100CA00000BF1AE0012D02D0022D14D100E012E0A5
:100CB00000231A4619466A4800680BF0BBFD002362
:100CC0001A461946694800680BF0B4FD6848006888
:100CD0000DF07AF900BF00BF00BF00BF03E020465F
:100CE00016F012FA00BF00BFBDE8F0811CB5012468
:100CF000042017F029F9002017F038F916F036FB18
:100D000006460020009033465A4A032101905A4873
:100D100010F054FB05464EE00021514800680BF0EE
:100D2000CCFE01280FD1012C0DD100242D4806F056
:100D30006BFF284616F00FFB0646012110F0ECFF72
:100D400000200DF0B5F800214C4800680BF0B5FE0E
:100D500001280ED16CB9012416F008FB06460020CC
:100D600000903346434A03210190434810F026FB8C
:100D70000546434800680CF0C0FA58B100221749F4
:100D80003F4800680CF0B6F83EA01EF039FD28463A
:100D900016F006FF414800680CF0AFFA40B100229F
:100DA00010493E4800680CF0A5F8284616F0F8FEF9
:100DB000012010F055FCAFE75838C5004040400016
:100DC00040C0020856656C6F6369747920286B6DAA
:100DD0002F68293A00000000E0EE0208080F00200A
:100DE00098A102083C0900203A0000006D000000B4
:100DF000E881020844697374616E63650000000055
:100E000053746F7077617463680000005265636F9C
:100E1000726420436F6C756D6E0000004D61782028
:100E20002020203A000000004D696E202020202064
:100E30003A00000054696D6573203A00417665728E
:100E40002020203A00000000AC2A02085265636F9F
:100E5000726400004374726C2050616E656C000017
:100E60002009002024090020140900202C0900205A
:100E700018090020FF0B0008ACFE01081C09002027
:100E8000D009002051756552656369652043414E64
:100E90005472616E732E0D0A00000000A809002034
:100EA0007CB50446656800BF4FF40040FE494FF42E
:100EB000A0734FF4F072CDE900100021084610F045
:100EC00035FE4AF2FF5011F080FE022011F024FF9F
:100ED000F64811F097FE19220F21F5A010F0B0FC92
:100EE000F74908780223192240F2091110F0F0FBAB
:100EF000F349487802231922E12110F0E9FB192275
:100F0000FF21F0A010F09CFC7CBD2DE9F0410446CF
:100F100020680F2804D01D2806D0262874D161E04F
:100F20002046FFF7BDFF96E0676840F60101606864
:100F300016F032FA07464FF40071384616F02CFAD4
:100F40008046E14A002114F0D1FF4FF40071384689
:100F500016F022FA8046DD4914F0ECFF0E23DCA2E5
:100F60006021384614F08FFC0E23DBA26021384646
:100F700014F089FC0E23DAA26021384614F083FCB9
:100F80000E23D9A26021384614F07DFC0E23DAA28C
:100F90006021384614F077FC0021384614F0E4FF55
:100FA0000121384614F09FFF1421384615F011F83E
:100FB0001921384614F0F7FFD149384614F0BAFF2A
:100FC000D04814F0AFFF40F60201606816F0E4F973
:100FD0000746CB4938460FF083FBCBA138460FF0CC
:100FE0009CFB38E0A06816F03EFA0646E568A6F6D7
:100FF000010010B1012828D10CE0012D05D0022DEF
:1010000004D0042D04D102E021E001E000E000BFA3
:1010100000BF1AE0012D02D0022D14D100E012E031
:1010200000231A461946BA4800680BF003FC002357
:101030001A461946B74800680BF0FCFBB648006832
:101040000CF0C2FF00BF00BF00BF00BF03E020469E
:1010500016F05AF800BF00BFBDE8F0812DED028BFD
:1010600082B00025042016F06FFF002016F07EFFEE
:10107000AA4806F05EFF924806F0C6FD6DE1002129
:10108000A44800680BF019FD012812D1012D10D1E0
:101090008B4806F0B9FD00250020A14908702046C4
:1010A00016F059F90746002110F036FE00200CF02A
:1010B000FFFE012010F0D4FA00219A4800680BF0DE
:1010C000FCFC012815D1A5B900231A4619469648FB
:1010D00000680BF0AFFB16F049F9074600200090BE
:1010E0003B46924A03210190914810F067F904466B
:1010F0000125904800680CF000F940B100227049C9
:101100008C4800680BF0F6FE204616F049FD0120E1
:1011100010F0A6FA884800680CF0EFF8002877D0A5
:1011200010E07F48007800EB4000844A02EBC001E9
:101130000022814800680BF0DDFE79480078401CF1
:10114000774908707C4800680CF0D7F80028E8D18F
:101150007B490870A2E07A490978491CC8B2FFF7B8
:1011600077FA784908607648007800EB40007349C8
:1011700001EBC00090ED001BB0EE410AF0EE610AF9
:10118000FFF73EFA6F4948606D48007800EB400079
:101190006A4901EBC00090ED021BB0EE410AF0EE8F
:1011A000610AFFF72DFA674988606548007880B3C7
:1011B00063490978491E01EB4101604A02EBC10114
:1011C000088A0EF095FE604A03C25D49097801EB7A
:1011D00041015A4A02EBC101488A0EF089FE5B4A7E
:1011E00003C2594890ED000B53EC102B574890ED7B
:1011F000000B51EC100B0EF094FD41EC180BB0EE0F
:10120000480AF0EE680AFFF7FBF94E49C86008E0AB
:10121000A0E0FFE74D4890ED000BFFF7F1F94949D9
:10122000C8604749097801EB4101444A02EBC1011A
:10123000488A0EF05DFE454A03C24149097801EB38
:1012400041013E4A02EBC101088A0EF051FE3E4ABE
:1012500003C23E4890ED000B53EC102B3A4890ED42
:10126000000B51EC100B0EF05CFD41EC180BB0EED6
:10127000480AF0EE680AFFF7C3F93249086140F600
:101280000101204616F088F806462E49304614F033
:101290004AFB2B480078401C2949087028480078F0
:1012A0001F490978884253E05838C50098A10208C0
:1012B0005265636F726420486973746F72790000BD
:1012C000400900203A00000080FF8000E86E02081C
:1012D00054696D6573000000566D61780000000070
:1012E000566D696E00000000416363656C65726154
:1012F00074696F6E00000000536C6964696E67006A
:10130000AC2A0208084B020852657475726E000020
:101310001C0900202809002010090020380F002097
:101320004209002024090020340900200B0F000886
:1013300000FF0108A8090020D4090020680F002040
:10134000430900200815002048090020500900200A
:10135000FFF601AF012010F083F990E67CB504465A
:10136000656800BF4FF40040F7494FF4A0734FF495
:10137000F072CDE900100021084610F0D7FB7CBDCB
:101380002DE9F041044620680F2804D01D2806D01E
:1013900026287DD1F6E02046FFF7E0FF3DE240F64B
:1013A0000101606815F0F8FF0746E849384615F076
:1013B00089FA48F2FF01384615F0DAFA0E2138466C
:1013C00015F0C1FAE2A1384615F093FA40F6020191
:1013D000606815F0E1FF0746E149384615F072FAFA
:1013E0000E21384615F0AFFA48F2FF01384615F0E5
:1013F000BFFADCA1384615F07CFA40F603016068BC
:1014000015F0CAFF07460E21384615F09CFA48F23F
:10141000FF01384615F0ACFAD149384615F052FABA
:10142000D3A1384615F065FA40F60401606815F05E
:10143000B3FF0746CA49384615F044FA0E2138462C
:1014400015F081FA48F2FF01384615F091FACCA167
:10145000384615F04EFA40F60501606815F09CFF1D
:101460000746CB49384615F02DFA0E21384615F0BF
:101470006AFA48F2FF01384615F07AFAC5A13846F3
:1014800015F037FA40F60601606815F085FF00E0B8
:10149000BFE10746BE49384615F014FA0E2138461A
:1014A00015F051FA48F2FF01384615F061FABBA178
:1014B000384615F01EFA40F60701606815F06CFF1B
:1014C0000746B8A138460FF028F9B14938460FF061
:1014D00007F940F60801606815F05EFF0746AC4961
:1014E00038460FF0FDF8B148007820B1B0A1384679
:1014F0000FF013F903E0AFA138460FF00EF940F6F4
:101500000901606815F048FF0746A14938460FF009
:10151000E7F8A948007820B1A5A138460FF0FDF8FA
:1015200003E0A4A138460FF0F8F840F60A0160681D
:1015300015F032FF0746964938460FF0D1F89F481C
:10154000007820B19AA138460FF0E7F803E099A19E
:1015500038460FF0E2F840F60C01606815F01CFF09
:1015600007468B4938460FF0BBF89548007820B104
:101570008FA138460FF0D1F803E08EA138460FF066
:10158000CCF84AE1A06815F06EFF0646E568A6F6BD
:10159000070006281ED2DFE800F0031E53881DBD99
:1015A000012D02D0022D14D100E012E000231A46D2
:1015B0001946844800680BF03DF900231A46194685
:1015C000814800680BF036F9804800680CF0FCFC9C
:1015D00000BF00BF1BE1012D02D0022D2ED114E06F
:1015E0007248007840B17A490878002106F059FC29
:1015F00000206E49087007E075490878012106F05F
:1016000050FC01206949087018E06848007850B122
:1016100040F60801606815F0BFFE074664A1384631
:101620000FF07BF809E040F60801606815F0B4FEA1
:10163000074660A138460FF070F800BF00BFE6E033
:10164000012D02D0022D2ED114E05B48007840B16C
:101650005F494878002106F024FC002056490870B4
:1016600007E05B494878012106F01BFC0120524944
:10167000087018E05048007850B140F609016068E1
:1016800015F08AFE07464AA138460FF046F809E0F1
:1016900040F60901606815F07FFE074645A138460F
:1016A0000FF03BF800BF00BFB1E0012D02D0022DCA
:1016B0002ED114E04148007840B145498878002196
:1016C00006F0EFFB00203D49087007E040498878AC
:1016D000012106F0E6FB01203849087018E0374880
:1016E000007850B140F60A01606815F055FE0746D3
:1016F0002FA138460FF011F809E040F60A016068A2
:1017000015F04AFE07462BA138460FF006F800BF39
:1017100000BF7CE0012D02D0022D76D15AE028488E
:10172000007840B12A49C878002106F0BAFB0020B1
:101730002349087007E02649C878012106F0B1FB6B
:1017400001201F49087060E05838C50098A10208C0
:10175000436F6E74726F6C2050616E656C00000098
:10176000383B0208486561646C69676874730000FF
:101770005475726E20496E64696361746F72730090
:1017800048617A617264204C696768747300000074
:10179000AC2A02084C656674000000005269676854
:1017A0007400000052657475726E000058090020C4
:1017B0004F4E00004F464600590900205A090020AC
:1017C0005B0900201C0900203009002010090020BE
:1017D0005C0900202F48007858B140F60C01606881
:1017E00015F0DAFD0746AFF2380138460EF095FFE6
:1017F0000AE040F60C01606815F0CEFD0746AFF236
:101800004C0138460EF089FF00BF00BF00BF00BF8B
:1018100003E0204615F078FC00BF00BFBDE8F08172
:101820001CB50025042016F08FFB002016F09EFB4F
:101830002FE00021184800680BF03FF901280CD177
:10184000012D0AD10025204615F085FD0646002110
:1018500010F062FA00200CF02BFB01200FF000FFCB
:1018600000210E4800680BF028F901280ED16DB94F
:1018700015F07CFD0646002000903346084A0C21F6
:10188000019008480FF09AFD0446012501200FF051
:10189000E7FECEE75B090020300900202C0900207C
:1018A0008113000854FF01081CB50121202007F016
:1018B000EBFE4FF4C060009001208DF80400002082
:1018C0008DF806008DF8070003208DF805006946A5
:1018D000044807F03BFC4FF4C061024807F0B4FC39
:1018E0001CBD00000014024000B599B00121782011
:1018F00007F0CAFE4FF63370179002208DF8600093
:1019000003208DF8610000208DF8620001208DF821
:10191000630017A9994807F019FC4FF683701790D8
:1019200017A9974807F012FC4FF23F00179017A92C
:10193000944807F00BFC40F23F40179017A99248DB
:1019400007F004FC0C2200218C4807F08AFC0C22D2
:1019500001218A4807F085FC0C220421874807F002
:1019600080FC0C220521854807F07BFC0C22082115
:10197000824807F076FC0C220921804807F071FCB0
:101980000C220A217D4807F06CFC0C220B217B48BD
:1019900007F067FC0C221146784807F062FC0C2225
:1019A0000D21764807F05DFC0C220E21734807F0EC
:1019B00058FC0C220F21714807F053FC0C22002127
:1019C0006F4807F04EFC0C2201216D4807F049FCDE
:1019D0000C2207216A4807F044FC0C2208216848C1
:1019E00007F03FFC0C220921654807F03AFC0C2265
:1019F0000A21634807F035FC0C220B21604807F0F0
:101A000030FC0C2211465E4807F02BFC0C220D2105
:101A10005B4807F026FC0C220E21594807F021FCF8
:101A20000C220F21564807F01CFC0C2200215548BF
:101A300007F017FC0C220121524807F012FC0C227F
:101A40000221504807F00DFC0C2203214D4807F0FD
:101A500008FC0C2204214B4807F003FC0C22052152
:101A6000484807F0FEFB0C221146464807F0F9FBF8
:101A70000C220D21434807F0F4FB0C220E214148B3
:101A800007F0EFFB0C220F213E4807F0EAFB0C2287
:101A900000213D4807F0E5FB0C2201213A4807F000
:101AA000E0FB0C220221384807F0DBFB0C2203216B
:101AB000354807F0D6FB0C220421334807F0D1FB50
:101AC0000C220521304807F0CCFB0C220A212E48BD
:101AD00007F0C7FB0020019002900920039000202E
:101AE000049005900690079004200890002009902B
:101AF0000A9010200B9000200C900D900E900F90EB
:101B000010904FF480501190002012901390149078
:101B100001A81590169008A806F0C9FF012104201D
:101B200007F050F819B000BD10B506E004784FF08A
:101B3000D0435C54491C401C521E002AF6D110BDF3
:101B400006E04FF0D0435B5C00F8013B491C521E9D
:101B5000002AF6D1704713B504460122214601A898
:101B6000FFF7E2FF1CBD18B5044601222146684676
:101B7000FFF7E6FF9DF8000018BD0000000C0240D2
:101B800000100240001402400018024010B500F09E
:101B9000BBF810BD70B50446002600F0D4F8254609
:101BA000E11704EB11610912A02202EB4101C8B256
:101BB00000F075F900F008F9E11704EB1161091262
:101BC000A4EB0121C8B200F06AF900F0FDF800F0C2
:101BD000BAF8A12000F063F900F0F6F8002000F058
:101BE0008BF9064600F0D1F8304670BD70B504465A
:101BF0000E4600F0A8F82546E11704EB1161091222
:101C0000A02202EB4101C8B200F049F900F0DCF873
:101C1000E11704EB11610912A4EB0121C8B200F035
:101C20003EF900F0D1F8304600F039F900F0CCF878
:101C300000F0ABF80A2009F028FD70BD2DE9F04155
:101C400005460E461746002409E0E20026FA02F295
:101C5000D1B22A1990B2FFF7C9FF601CC4B2BC42CE
:101C6000F3DBBDE8F0812DE9F04107460C46002684
:101C7000002509E036023919491B491E88B2FFF7D1
:101C800089FF0644681CC5B2A542F3DB3046BDE8B7
:101C9000F08110B5FF20FFF77DFF0446552C01D1E0
:101CA000002010BD5521FF20FFF7A0FFFF20FFF708
:101CB00071FF0446552C01D10020F2E70120F0E726
:101CC00070B506460C46154608E03046721C96B2C2
:101CD000FFF760FF04F8010B681E85B2002DF4D1F8
:101CE00070BD70B505460C46164606E021782846BC
:101CF000FFF77CFF681C85B2641C301EA6F1010151
:101D00008EB2F3D170BD00001CB50121022007F096
:101D1000BBFC4FF44070009001208DF804000320BC
:101D20008DF8050000208DF8060001208DF80700D1
:101D30006946894807F00AFA0120884908608849FD
:101D4000C1F8A4021CBD10B58348006820F44020EF
:101D5000814908600846006840F48020086001203E
:101D60007E49091D08607E49C1F8A002042009F0DF
:101D70006AFC00207949091D0860042009F063FC11
:101D800000207749C1F8A00210BD10B57248006864
:101D900020F44020704908600846006840F4802024
:101DA000086000206D4908606D49C1F8A402042054
:101DB00009F049FC0120694908606949C1F8A40299
:101DC000042009F040FC10BD10B5002462480068F2
:101DD00020F440206049086008460068086001203F
:101DE0005E49091D086009F02EFC01205C49C1F81C
:101DF000A00209F028FC07E0601CC4B2FA2C03DD45
:101E0000FFF7C3FF012010BD54487C38006800284C
:101E1000F2D15249086000BFF5E710B500204F49E4
:101E200008604D48006820F440204B49086008468F
:101E3000006840F48020086000204949C1F8A402ED
:101E4000022009F000FC012044490860022009F04A
:101E5000FAFB00204249C1F8A00210BD10B50020D5
:101E60003E4908603C48006820F440203A49086038
:101E70000846006840F48020086001203849C1F815
:101E8000A402022009F0DFFB01203449086002208F
:101E900009F0D9FB00203249C1F8A00210BD70B58D
:101EA00004462D48006820F440202B49086008466D
:101EB000006840F480200860002028490860002560
:101EC00017E0E0092549091D08606006040E02209C
:101ED00009F0B9FB01202249C1F8A002022009F053
:101EE000B2FB00201D490860022009F0ACFB681C11
:101EF000C5B2082DE5DB70BD70B505460024164857
:101F0000006820F440201449086008460068086012
:101F1000002616E0002011490860022009F093FB1A
:101F200001200F49C1F8A0026006040E0B487C385E
:101F3000006808B1601CC4B2012009F084FB701C69
:101F4000C6B2082EE6DB15B9FFF788FF01E0FFF700
:101F500064FF204670BD000000040240A0824042A1
:101F600000804042002100BF14E000F080021AB15E
:101F70000122FE4B1A6002E00022FC4B1A6042066E
:101F8000100E0022FA4B1A600122FA4BC3F880228D
:101F90004A1CD1B20829E8DB704770B50646002517
:101FA00000240020F2490860F349C1F8AC02F3496B
:101FB00008603046FFF7D6FF062009F044FB0020FA
:101FC000EC49C1F88002012009F03DFB0120E849FD
:101FD000086009F038FB0020E649C1F8800200BF24
:101FE00015E04FF6FF7000EA44040020E049086065
:101FF000012009F028FB0120DE49C1F88002DC48FD
:102000007838006808B1601C84B2681CC5B2102D15
:10201000E7DB24110120D9490860204670BD2DE975
:10202000FE4380460027002406E04046FFF7B5FF48
:102030002DF81400601C84B2052CF6DB002416E099
:10204000601C85B20FE03DF814003DF81510884281
:1020500007DD3DF814603DF815002DF814002DF84B
:102060001560681C85B2052DEDDB601C84B2042C64
:10207000E6DB0027012405E03DF81400384487B270
:10208000601C84B2042CF7DB032097FBF0F086B2CF
:102090003046BDE8FE832DE9F04104460D46B848C0
:1020A0000078FFF7BCFF0646B6480078FFF7B7FF99
:1020B000074626802F800120BDE8F0817FB50446C9
:1020C0000D4602A903A8FFF7E6FF064616B9002051
:1020D00004B070BD694601A8FFF7DDFF06460EB9E2
:1020E0000020F5E7BDF80400BDF80C10884206DCBE
:1020F000BDF80C10BDF80400323081420CDBBDF895
:102100000C00BDF80410884236DCBDF80410BDF8A0
:102110000C00323081422FDABDF80000BDF8081003
:10212000884206DCBDF80810BDF80000323081425C
:102130000CDBBDF80800BDF8001088421CDCBDF8BF
:102140000010BDF808003230814215DABDF80C10DD
:10215000BDF80420881800EBD071C1F34F01218035
:10216000BDF80810BDF80020881800EBD071C1F34D
:102170004F0129800120ABE70020A9E770B5044694
:102180000D4616468048068004F10D018AB21939C1
:1021900088B22B46294605F0F7FA05F10D0083B207
:1021A000193881B22246204605F0EEFA6A1C91B237
:1021B000621C90B201F094FA6A1C91B2621E90B255
:1021C00001F08EFA6A1E91B2621C90B201F088FA98
:1021D0006A1E91B2621E90B201F082FA062229466E
:1021E000204605F047FB70BD70B504460D46164607
:1021F000654806802946204601F072FA611C88B2C3
:10220000294601F06DFA681C81B2204601F068FA97
:102210006A1C91B2621C90B201F062FA70BD10B5F6
:10222000044653487C380068002843D12CB15749F4
:10223000A1F10A00FFF742FF2AE05449A1F10A0088
:10224000FFF73CFF20B35148163890ED0B0A90ED94
:10225000091A808900EE900AF8EE600A01EE200A61
:10226000BCEEC00A10EE100A4849163988810846AB
:1022700090ED0C0A90ED0A1AC08A00EE900AF8EE72
:10228000600A01EE200ABCEEC00A10EE100AC882F5
:102290003E48163890F8200000F0800038BBC0207F
:1022A0003A49163981F82000084681898182C18A1D
:1022B000C1831CE03548163890F8200000F08000FB
:1022C00050B13248163890F8200020F080002F4995
:1022D000163981F820000AE000212C481638818246
:1022E000C1834FF6FF70294916398881C882274873
:1022F000163890F8200000F0800010BD10B523487B
:10230000163890ED090ADFED220A20EE200ABDEE14
:10231000C00A10EE104A042221462820FFF78EFC46
:102320001A48163890ED0A0ADFED190A20EE200A45
:10233000BDEEC00A10EE104A042221462C20FFF701
:102340007DFC1248163890ED0B0ABCEEC00A10EE68
:10235000101A02223020FFF771FC0C48163890ED5D
:102360000C0ABCEEC00A10EE101A13E0AC82424216
:10237000808240420080404200804242B40241429A
:102380009C0900209D090020A40900207A09002052
:1023900020BCBE4C02223220FFF750FCFE4890F8D1
:1023A00034103420FFF722FC0A2421463520FFF7A1
:1023B0001DFC10BD10B53520FFF7ECFB04460A2CC0
:1023C0004ED104212820FFF74EFC044600EE104AAF
:1023D000B8EEC00A5FED120A80EE201AEE4880EDDA
:1023E000091A04212C20FFF73EFC044600EE104A97
:1023F000B8EEC00A5FED1A0A80EE201AE64880EDBA
:102400000A1A02213020FFF72EFC00EE100AB8EE67
:10241000400AE14880ED0B0A02213220FFF723FC3D
:1024200000EE100AB8EE400ADB4880ED0C0A3420BA
:10243000FFF7B0FBD84981F83400084690F8340023
:1024400030B19020D5490870D020D549087005E0FA
:10245000D020D24908709020D1490870012010BDC9
:102460000020FCE72DE9FC5F04460D4617461E469A
:10247000DDE90EABDDE90C894FF47840C9490880ED
:10248000C9A01021CDE90010C84843880288A021C6
:10249000282005F086FBC6A01021CDE90010C34816
:1024A00043880288A021782005F07BFBC1A0102181
:1024B000CDE90010BD4843880288B421282005F0EA
:1024C00070FBBDA01021CDE90010B84843880288F8
:1024D000B421782005F065FBB8A01021CDE90010EB
:1024E000B24843880288C821282005F05AFBB4A0CE
:1024F0001021CDE90010AD4843880288C82178201A
:1025000005F04FFBAFA01021CDE90010A74843888C
:102510000288DC21282005F044FBABA01021CDE986
:102520000010A24843880288DC21782005F039FB9E
:10253000A6A01021CDE900109C4843880288F02114
:10254000282005F02EFB102004232246A021009015
:10255000402005F06EFA102004232A46A0210090A6
:10256000902005F066FA102004233A46B42100902A
:10257000402005F05EFA102004233246B42100907A
:10258000902005F056FA102004234246C8210090FE
:10259000402005F04EFA102004234A46C82100903E
:1025A000902005F046FA102004235246DC210090CA
:1025B000402005F03EFA102004235A46DC2100900A
:1025C000902005F036FA1020009078480188032307
:1025D0006020109A05F02DFABDE8FC9F00B597B079
:1025E000002012900B9012901F216E4801804FF630
:1025F000FF707849088001F05EFB4FF4784169482C
:1026000001804FF6FF7001F056FB002065490880FD
:102610007148006810216423A022CDE90010282110
:10262000084605F0BEFA4FF4784214210846FFF739
:10263000A5FD0021584880F820109FED680A80ED24
:10264000090A54E2544840680A9001200A998847D0
:10265000514890F8200000F0C000402870D10020C0
:102660000B904D4890F8200020F040004A4981F836
:1026700020000846828913A9129821F82020464894
:10268000C18A13AA129802EB800041801298401C64
:10269000C0B212901298012806D0022815D0032843
:1026A00029D0042810D141E04FF6FF7214210846CA
:1026B000FFF764FD3D480088143880B24FF478423B
:1026C00014210A90FFF75AFDE0E3384800881438D7
:1026D00080B24FF6FF7214210A90FFF74FFD334886
:1026E0004088143880B24FF4784201460A90142092
:1026F000FFF744FDCAE32D484088143880B24FF6F6
:10270000FF7201460A901420FFF738FD27484088E1
:10271000143880B20A9025480088143880B24FF4EB
:10272000784209900A99FFF729FDAFE3BDF84C10F4
:10273000BDF85000081A0A90002802DB0A9802E04F
:10274000A5E30A9840420F90BDF84E1013A8C08828
:10275000081A0A90002801DB0A9801E00A98404212
:102760000E900F9840430F900E9840430E90DDE975
:102770000E10084405900DF0BBFBCDE906019DED60
:10278000060B1DF079F98DED080B9DED080B51EC52
:10279000100B0DF0D9FB23E0640900209C090020F8
:1027A0009D090020A409002078313A001C15002062
:1027B00079313A0078323A0079323A0078333A0087
:1027C00079333A0078343A0079343A00666163200C
:1027D00069733A00A6090020A0090020000000004B
:1027E00080B21190BDF85400BDF85810401A0A90FC
:1027F000002801DB0A9801E00A9840420F9013A8D4
:102800004189C089081A0A90002801DB0A9801E072
:102810000A9840420E900F9840430F900E98404304
:102820000E90DDE90E10084405900DF061FBCDE936
:1028300006019DED060B1DF01FF98DED080B9DEDBA
:10284000080B51EC100B0DF07FFB80B210909DED4A
:10285000110AF8EE400A9DED100AB8EE401A80EE1B
:10286000810A8DED0A0A0A980DF087FBCDE90C016B
:102870009FEDFE0B53EC102B9DED0C0B51EC100B50
:102880000DF08EFB0ED39FEDFB0B53EC102B9DED4B
:102890000C0B51EC100B0DF09BFB03D3119808B1FE
:1028A0001098E8BB00201290F4484088143880B299
:1028B0000A90F2480088143880B24FF6FF720990EF
:1028C0000A99FFF75BFC4FF4784214210846FFF7A2
:1028D00055FC9FEDEB0B53EC102B9DED0C0B51ECCD
:1028E000100B0DF024FACDE908019DED080B51EC19
:1028F000100B0DF029FB80B213A90A90C989BDF80D
:10290000582013AB5B89CDE90132CDE90310BDF846
:102910005400009013A8C0880990BDF8500000E052
:102920000BE00890BDF84E000790BDF84C000690F3
:1029300007A90EC9FFF796FDB8E2BDF84C10BDF827
:102940005400081A0A90002801DB0A9801E00A984E
:1029500040420F90BDF84E1013A84089081A0A9003
:10296000002801DB0A9801E00A9840420E900F9877
:1029700040430F900E9840430E90DDE90E1008443E
:1029800005900DF0B5FACDE906019DED060B1DF0A1
:1029900073F88DED080B9DED080B51EC100B0DF04D
:1029A000D3FA80B21190BDF85000BDF85810401A0B
:1029B0000A90002801DB0A9801E00A9840420F9033
:1029C00013A8C188C089081A0A90002801DB0A9858
:1029D00001E00A9840420E900F9840430F900E98E5
:1029E00040430E90DDE90E10084405900DF080FA8A
:1029F000CDE906019DED060B1DF03EF88DED080BAF
:102A00009DED080B51EC100B0DF09EFA80B210906A
:102A10009DED110AF8EE400A9DED100AB8EE401A3D
:102A200080EE810A8DED0A0A0A980DF0A6FACDE92A
:102A30000C019FED8E0B53EC102B9DED0C0B51EC0C
:102A4000100B0DF0ADFA0AD39FED8A0B53EC102B4F
:102A50009DED0C0B51EC100B0DF0BAFA48D2002092
:102A6000129086484088143880B20A9083480088C3
:102A7000143880B24FF6FF7209900A99FFF77EFB77
:102A80004FF4784214210846FFF778FB9FED7C0B4A
:102A900053EC102B9DED0C0B51EC100B0DF047F986
:102AA000CDE908019DED080B51EC100B0DF04CFA2F
:102AB00080B213A90A90CA89BDF8581013AB5B897C
:102AC000CDE90131CDE90320BDF85400009013A8F1
:102AD000C0880990BDF850000890BDF84E000790DE
:102AE000BDF84C00069007A90EC9FFF7BBFCDDE15D
:102AF000BDF85000BDF85410401A0A90002801DBC0
:102B00000A9801E00A9840420F9013A8C1884089B2
:102B1000081A0A90002801DB0A9801E00A9840424E
:102B20000E900F9840430F900E9840430E90DDE9B1
:102B30000E10084405900DF0DBF9CDE906019DED7E
:102B4000060B1CF099FF8DED080B9DED080B51EC69
:102B5000100B0DF0F9F980B21190BDF84C00BDF8E2
:102B60005810401A0A90002801DB0A9801E00A98E0
:102B700040420F90BDF84E1013A8C089081A0A9061
:102B8000002801DB0A9801E00A9840420E900F9855
:102B900040430F900E9840430E90DDE90E1008441C
:102BA00005900DF0A5F9CDE906019DED060B1CF091
:102BB00063FF8DED080B9DED080B51EC100B0DF034
:102BC000C3F980B210909DED110AF8EE400A9DED18
:102BD000100AB8EE401A80EE810A8DED0A0A0A98B2
:102BE0000DF0CBF9CDE90C019FED200B53EC102B30
:102BF0009DED0C0B51EC100B0DF0D2F90AD39FEDAB
:102C00001D0B53EC102B9DED0C0B51EC100B0DF02C
:102C1000DFF958D20020129018484088143880B24A
:102C20000A9016480088143880B24FF6FF72099057
:102C30000A99FFF7A3FA4FF4784214210846FFF7E8
:102C40009DFA9FED0F0B53EC102B9DED0C0B51ECEF
:102C5000100B0DF06CF8CDE908019DED080B51EC5F
:102C6000100B0DF071F980B202460DE066666666E3
:102C70006666EE3FCDCCCCCCCCCCF03F1C15002012
:102C800000000000000059400A9013A8C089BDF858
:102C9000581013AB5B89CDE90131CDE90302BDF8D2
:102CA0005400009013A8C0880990BDF85000089007
:102CB000BDF84E000790BDF84C00069007A90EC95C
:102CC000FFF7D0FBF2E0BDF85000BDF84C10401A01
:102CD00000EE100AF8EEC00A93480088283800EE8B
:102CE000100AB8EEC00A80EE201A904880ED091A4A
:102CF000BDF85000BDF84C10084400EE100AF8EE84
:102D0000C00A8948008800EE100AB8EE400A8748D9
:102D100090ED091A01EE600AF0EE000A80EE201A2A
:102D200080ED0B1A13A84089BDF84E10401A00EE32
:102D3000100AF8EEC00A7C484088283800EE100AD5
:102D4000B8EEC00A80EE201A784880ED0A1A13A85F
:102D50004089BDF84E10084400EE100AF8EEC00A93
:102D60007148408800EE100AB8EE400A6F4890EDB6
:102D70000A1A01EE600AF0EE000A80EE201A80EDD9
:102D80000C1A90ED090ABDEEC00A8DED090A0998EA
:102D9000002801DB099801E00998404202280FDC75
:102DA000624890ED0A0ABDEEC00A8DED0A0A0A9843
:102DB000002801DB0A9801E00A984042022842DD1F
:102DC0000020129058484088143880B20A90564823
:102DD0000088143880B24FF6FF7209900A99FFF705
:102DE000CDF94FF4784214210846FFF7C7F950A0F7
:102DF0001021CDE900104C4840880A904A480088CC
:102E0000099002461A2128200A9B04F0CAFE47486E
:102E100090F8340008B9012000E00020434981F80F
:102E20003400084690F8340030B1902045490870CD
:102E3000D0204549087005E0D02042490870902014
:102E40004149087032E01F21404801804FF6FF7071
:102E500000F031FF3EA01021CDE90010324840883B
:102E60000A9031480088099002466E2123200A9B6F
:102E700004F097FE4FF47A7008F007FCFFF73EFA73
:102E80004FF6FF7000F017FF17B000BD00BF0A201B
:102E900008F0FBFB0B98401C80B20B900B98B0F530
:102EA0007A7F02DDFFF786FA02E000BFFFF7CABBB8
:102EB00000BF00BFE8E71CB50121262006F0E4FBB7
:102EC0000620009000208DF8040001208DF80700F6
:102ED0006946254806F03AF94FF400600090012059
:102EE0008DF8040003208DF8050000208DF8060001
:102EF00001208DF8070069461C4806F027F90120DB
:102F000000906946184806F021F94FF400500090EF
:102F10006946174806F01AF904491631A1F10A006A
:102F2000FFF7B9F801201CBD1C1500206409002022
:102F30005450204E65656420726561646A757374CF
:102F4000210000009C0900209D090020A409002008
:102F5000546F7563682053637265656E2041646ABF
:102F6000757374204F4B210000040240001402408E
:102F70000008024001B5BDF800000090BDF8000057
:102F8000FC49088008BD01B5BDF800000090BDF8FF
:102F90000000F849891C088008BD08B5F548801C68
:102FA00000880090BDF8000008BD03B5BDF8000022
:102FB000F0490880BDF804004FF0D841A1F8800026
:102FC0000CBD01B5BDF80000FFF7D4FF052008F0E7
:102FD0003AFBFFF7E2FF08BDE7480089E5490880B2
:102FE0007047E449891C0880704730B5014601F0FC
:102FF0001F04C1F34513CA0AE50205EB4315154446
:10300000A8B230BD00BF011EA0F10102D0B2FAD1BA
:10301000704730B504460D46D748808849F24131A3
:10302000884205D0D448808845F21031884214D1B6
:10303000D1494889FFF79EFF2012FFF7A4FFE0B2B5
:10304000FFF7A1FFCC498889FFF794FF2812FFF70B
:103050009AFFE8B2FFF797FFABE0C748808846F6D3
:10306000040188421DD1C4488079012804D1C24896
:103070000088401E001B84B2BF494889FFF77AFFD1
:103080002012FFF780FFE0B2FFF77DFFBA49888981
:10309000FFF770FF2812FFF776FFE8B2FFF773FF24
:1030A00087E0B548808841F66311884247D1B2482D
:1030B0008079A8B9B0480088401E001B84B2AE4990
:1030C0004889FFF757FF0020FFF75DFF0020FFF75B
:1030D0005AFF2012FFF757FFE0B2FFF754FF16E048
:1030E000A5494889FFF746FF2012FFF74CFFE0B2E1
:1030F000FFF749FFA0490988491EC1F30F20FFF7D8
:1031000042FF9D490978491EC8B2FFF73CFF9A4922
:103110008889FFF72FFF2812FFF735FFE8B2FFF786
:1031200032FF95494988491EC1F30F20FFF72BFF55
:1031300091498978491EC8B2FFF725FF39E08E48CA
:10314000808845F21051884220D18B494889FFF789
:1031500011FF2012FFF717FF87494989491C88B2E0
:10316000FFF708FFE0B2FFF70EFF83498889FFF7FA
:1031700001FF2812FFF707FF7F498989491C88B2A0
:10318000FFF7F8FEE8B2FFF7FEFE12E07A4880791A
:10319000012804D178480088401E001B84B276497B
:1031A00048892146FFF701FF734988892946FFF7BF
:1031B000FCFE30BD3EB504460D4600200290019055
:1031C00000906D480088A04203DD6B484088A8420B
:1031D00001DC00203EBD29462046FFF71AFF664865
:1031E000808849F24131884211D06348808846F690
:1031F000040188420BD06048808845F21031884233
:1032000005D05D48808841F66311884203D12E20A5
:10321000FFF7B0FE0DE05848808845F21051884213
:1032200004D14FF43850FFF7A5FE02E02220FFF74B
:10323000A1FE5148808849F22031884202D1022003
:10324000FFF7E0FEFFF7A9FE02904B48808841F6A9
:103250006311884202D1BDF80800BBE70220FFF7E6
:10326000D1FEFFF79AFE02904348808849F241312F
:1032700088420BD04048808845F21031884205D002
:103280003D48808845F21051884210D10220FFF756
:10329000B9FEFFF782FE0090BDF80800C0B20190B1
:1032A000BDF804004FF6FF7101EA0020019032489A
:1032B000808849F22531884216D02F48808844F210
:1032C0003551884210D02C488088091F88420BD085
:1032D000294880884BF20551884205D026488088CD
:1032E0004CF20551884202D1BDF8080072E722482D
:1032F000808849F2413188420BD01F48808845F2CE
:103300001031884205D01C48808845F2105188420F
:103310000DD1BDF80800C012C002BDF8041089121A
:1033200040EA4110BDF8001040EAE12052E7BDF844
:103330000800FFF75AFE4DE700B50F48808849F2B4
:103340004131884211D00C48808846F604018842F9
:103350000BD00948808845F21031884205D00648D4
:10336000808841F66311884208D12920FFF702FEC8
:1033700014E000007E00006C1C150020FE488088D0
:1033800045F21051884204D14FF42450FFF7F2FD6A
:1033900004E040F273110720FFF707FE00BD00B5FF
:1033A000F548808849F24131884211D0F24880883E
:1033B00046F6040188420BD0EF48808845F2103170
:1033C000884205D0EC48808841F66311884203D1D9
:1033D0002820FFF7CFFD0EE0E748808845F2105126
:1033E000884204D14FF42050FFF7C4FD03E00021D0
:1033F0000720FFF7DAFD00BDF0B5054600240027E1
:10340000DD48807901280BD1DB48808846F604012D
:10341000884205D0D848808841F66311884208D197
:10342000D5488079F0B9D448808841F66311884244
:1034300018D1082D15D2DFE805F00406080A0C0E95
:10344000101206250DE007250BE0042509E00525EF
:1034500007E0012505E0002503E0032501E0022542
:1034600000BF00BFC448808849F24131884217D06C
:10347000C148808846F60401884211D0BE48808841
:1034800045F2103188420BD0BB48808845F210517C
:10349000884205D0B848808841F6631188427DD1C2
:1034A000082D1CD2DFE805F00406090C0F121518D0
:1034B00000BF14E044F0800411E044F040040EE04A
:1034C00044F0C0040BE044F0200408E044F0600441
:1034D00005E044F0A00402E044F0E00400BF00BFB7
:1034E000A548808845F21051884202D14FF45857C0
:1034F00000E03627A048808845F2103188420DD080
:103500009D48808845F21051884207D09A488088AB
:1035100041F66311884201D044F00804964880883F
:1035200046F60401884201D144F00204214638469F
:10353000FFF73BFD9048808841F6631188421DD01B
:1035400004F0200068B18C4800888B494988884283
:1035500014DA8948068840888749088008464680EA
:103560000CE08548008884494988884206DD824805
:103570000688408880490880084646807E488088C2
:1035800045F21051884254D17B494889FFF7F2FC3B
:103590000020FFF7F8FC7849498900E078E0491CF1
:1035A00088B2FFF7E7FC0020FFF7EDFC724949897C
:1035B000891C88B2FFF7DEFC6F490988491EC1F3F8
:1035C0000F20FFF7E0FC6C494989C91C88B2FFF75E
:1035D000D1FC69490978491EC8B2FFF7D4FC664995
:1035E0008889FFF7C7FC0020FFF7CDFC6249898975
:1035F000491C88B2FFF7BEFC0020FFF7C4FC5E49FF
:103600008989891C88B2FFF7B5FC5B494988491E46
:10361000C1F30F20FFF7B7FC57498989C91C88B24D
:10362000FFF7A8FC54498978491EC8B2FFF7ABFCE4
:1036300055E051494889FFF79DFC0020FFF7A3FCA6
:103640000020FFF7A0FC4C490988491EC1F30F2058
:10365000FFF799FC48490978491EC8B2FFF793FC67
:1036600045498889FFF786FC0020FFF78CFC002085
:10367000FFF789FC40494988491EC1F30F20FFF735
:1036800082FC3D498978491EC8B2FFF77CFC26E0E0
:10369000082D1CD2DFE805F004070A0D0F121518DB
:1036A00044F0300413E044F0100410E044F020042F
:1036B0000DE000BF0BE044F0380408E044F02804BB
:1036C00005E044F0180402E044F0080400BF00BF25
:1036D000032744F4805421463846FFF766FCF0BDCA
:1036E00030B504460D4629462046FFF792FCFFF709
:1036F00073FC224800882249088030BD70B504461A
:103700000D4616461C48808849F24131884205D052
:103710001948808845F21031884214D116494889E9
:10372000FFF728FC2012FFF72EFCE0B2FFF72BFC7E
:1037300011498889FFF71EFC2812FFF724FCE8B224
:10374000FFF721FC93E00C48808845F21051884235
:1037500027D109494889FFF70DFC2012FFF713FC18
:1037600005494989491C88B2FFF704FCE0B2FFF71C
:103770000AFC0149888905E01C150020A4090020E5
:103780008000006CFFF7F6FB2812FFF7FCFBFE49F8
:103790008989491C88B2FFF7EDFBE8B2FFF7F3FB1C
:1037A00065E0F948808841F66311884228D1F648DF
:1037B000807920B9F4480088401E001B84B2F24989
:1037C0004889FFF7D7FB2012FFF7DDFBE0B2FFF7D8
:1037D000DAFB2012FFF7D7FBE0B2FFF7D4FBEA4990
:1037E0008889FFF7C7FB2812FFF7CDFBE8B2FFF788
:1037F000CAFB2812FFF7C7FBE8B2FFF7C4FB36E0AD
:10380000E148808846F6040188421DD1DE4880796F
:10381000012804D1DC480088401E001B84B2DA492C
:103820004889FFF7A7FB2012FFF7ADFBE0B2FFF7D7
:10383000AAFBD5498889FFF79DFB2812FFF7A3FB58
:10384000E8B2FFF7A0FB12E0CF488079012804D14D
:10385000CD480088401E001B84B2CB4948892146D0
:10386000FFF7A3FBC84988892946FFF79EFBC64896
:103870000089C64908804FF0D840A0F8806070BD2C
:1038800070B52DED048B0446BE20FFF773FB0520B9
:10389000FFF779FB20460CF02BFB41EC190B9FED59
:1038A000BC0B53EC102B0CF042FA41EC180B0CF053
:1038B0004BFB85B22846FFF766FB0120FFF763FB51
:1038C000FF20FFF760FB0020FFF75DFB0020FFF704
:1038D0005AFBBDEC048B70BD10B50446002C66D1BC
:1038E000A9498871F02008804FF4A07048800846EC
:1038F000808849F2413188420BD0A348808846F63F
:103900000401884205D0A048808845F210318842E1
:103910001AD12C209C4908812A2048812B2088819B
:103920000846808846F60401884205D0964880887B
:1039300045F21031884206D14FF4A07092490880B8
:103940004FF4F0704880A1E08F48808845F2105114
:10395000884210D14FF430508B4908814FF42850E1
:1039600048814FF42C5088814FF4F07008804FF458
:10397000487048808AE08448808841F66311884214
:103980000DD12C20804908812B2048812A20888154
:103990004FF4F07008804FF44870488076E02220A1
:1039A0007949088120204881212088816EE001200A
:1039B000754988714FF4A0700880F020488008464F
:1039C000808849F24131884205D06F48808845F2AD
:1039D0001031884207D12C206B4908812A20488168
:1039E0002B2088813FE06848808846F604018842A1
:1039F00007D12C20644908812B2048812A20888106
:103A000031E06148808845F21051884210D14FF46E
:103A100030505D4908814FF4285048814FF42C50B4
:103A200088814FF4487008804FF4F07048801AE0A5
:103A30005548808841F6631188420DD12C205249A7
:103A400008812A2048812B2088814FF44870088003
:103A50004FF4F070488006E022204B490881212075
:103A60004881202088814848808846F604018842A1
:103A700005D04548808845F21031884206D14FF480
:103A8000F070414908804FF4A07048800020FFF793
:103A9000B3FC10BD2DE9F04F86B004460D469046AC
:103AA000994604EB0800401E86B205EB0900401E53
:103AB00087B23548808849F24131884215D0324872
:103AC000808845F2103188420FD02F48808846F612
:103AD0000401884209D02C488079012826D12A483F
:103AE000808841F66311884220D127494889FFF731
:103AF00041FA2012FFF747FAE0B2FFF744FA30121A
:103B0000FFF741FAF0B2FFF73EFA1F498889FFF745
:103B100031FA2812FFF737FAE8B2FFF734FA381211
:103B2000FFF731FAF8B2FFF72EFAC1E016488088A5
:103B300041F6631188423DD113480088A0EB08008C
:103B4000001B84B205EB0900401E1FFA80F90E49E4
:103B50004889FFF70FFA2012FFF715FAE0B2FFF7D6
:103B600012FA04EB0801491EC1F30F20FFF70BFA0C
:103B700004EB0801491EC8B2FFF705FA024988891B
:103B8000FFF7F8F9281207E01C1500207E00006CF2
:103B90006666666666660440FFF7F5F9E8B2FFF709
:103BA000F2F94FEA2920FFF7EEF909F0FF00FFF7DD
:103BB000EAF97DE0FE48808845F21051884244D100
:103BC000FB494889FFF7D6F92012FFF7DCF9F849DD
:103BD0004989491C88B2FFF7CDF9E0B2FFF7D3F964
:103BE000F3494989891C88B2FFF7C4F93012FFF7FD
:103BF000CAF9EF494989C91C88B2FFF7BBF9F0B28D
:103C0000FFF7C1F9EA498889FFF7B4F92812FFF7ED
:103C1000BAF9E7498989491C88B2FFF7ABF9E8B2DC
:103C2000FFF7B1F9E2498989891C88B2FFF7A2F947
:103C30003812FFF7A8F9DE498989C91C88B2FFF755
:103C400099F9F8B2FFF79FF932E0D9488079012855
:103C50000ED1AA46BB46D6480088801B401E80B2C3
:103C60000190D3480088001B401E80B2009003E002
:103C7000A246B3460195009750200590512004902C
:103C8000522003905320029051460598FFF78DF97A
:103C900059460498FFF789F901990398FFF785F9C8
:103CA00000990298FFF781F929462046FFF7B1F9FC
:103CB00006B0BDE8F08F70B504460026BC48058804
:103CC00040884543BA48808846F60401884216D1A8
:103CD000B7488079012812D10020B54988712A207F
:103CE00048812B20888100210846FFF792F90120A6
:103CF000AF4988712B2048812A20888103E0002168
:103D00000846FFF786F9FFF767F9002602E0A948A1
:103D10000480761CAE42FAD370BD00B5A1B000207D
:103D2000209001217A2005F0AFFC0121084605F022
:103D3000E3FC4FF400401E9001208DF87C00002031
:103D40008DF87E0002208DF87D0001208DF87F0027
:103D50001EA9994805F0FAF94CF233701E90022022
:103D60008DF87C0000208DF87E0003208DF87D000A
:103D700001208DF87F001EA9904805F0E7F94FF665
:103D800080701E9002208DF87C0000208DF87E004F
:103D900003208DF87D0001208DF87F001EA9884842
:103DA00005F0D4F94FF480501E9002208DF87C006D
:103DB00000208DF87E0003208DF87D0001208DF815
:103DC0007F001EA97F4805F0C1F94FF480501E9076
:103DD00002208DF87C0000208DF87E0003208DF8F5
:103DE0007D0001208DF87F001EA9774805F0AEF90F
:103DF0000C220021714805F034FA0C2201216F4891
:103E000005F02FFA0C2204216C4805F02AFA0C2246
:103E100005216A4805F025FA0C220821674805F0BB
:103E200020FA0C220921654805F01BFA0C220A2110
:103E3000624805F016FA0C220E21604805F011FACE
:103E40000C220F215D4805F00CFA0C2207215C487A
:103E500005F007FA0C220821594805F002FA0C2255
:103E60000921574805F0FDF90C220A21544805F0B4
:103E7000F8F90C220B21524805F0F3F90C221146F7
:103E80004F4805F0EEF90C220D214D4805F0E9F9F7
:103E90000C220E214A4805F0E4F90C220F21484873
:103EA00005F0DFF90C221146464805F0DAF90C223C
:103EB0001146454805F0D5F90F20089000200990DB
:103EC0003C200A9000200B900C900D900E90092041
:103ED000019000200290082003900020049005909B
:103EE0000690079006200F9000201090119010204F
:103EF00012900020139015901490169017904FF484
:103F000080501890002019904FF480401A900020A3
:103F10001B9008A81C9001A81D900FA804F0C7FDD5
:103F20000121062004F04EFE322007F0AEFB0121F5
:103F30000020FFF73AF8322007F0A7FB0020FFF738
:103F400040F81B49888008468088FF280ADB08461D
:103F500080884FF6FF71884204D015488088B0F5FC
:103F6000134F7DD1D320FFF705F8FFF716F810495E
:103F70008880FFF712F80E498880FFF70EF80C4989
:103F80008880084680884FF6FF7101EA00200849C2
:103F90008880FFF702F80649898808430449888029
:103FA0000846808849F24131884259D0BF200DE04F
:103FB0001C1500208000006C00040240000C024030
:103FC000001002400014024000180240FEF7D2FF29
:103FD000FEF7E3FFFE498880FEF7DFFFFC4988809B
:103FE000FEF7DBFFFA498880FEF7D7FFF8498880A3
:103FF000084680884FF6FF7101EA0020F449888066
:10400000FEF7CBFFF24989880843F14988800846CA
:10401000808846F6040188427AD0D420FEF7AAFFB1
:10402000FEF7BBFFEA498880FEF7B7FFE8498880C2
:10403000FEF7B3FFE6498880084680884FF6FF7197
:1040400001EA0020E2498880FEF7A7FFE04989885D
:104050000843DF4988800846808845F2103100E037
:1040600056E0884254D04FF45A40FEF783FFFEF7E3
:1040700094FFD74988804FF45B40FEF77BFFFEF743
:104080008CFFD3498880084680884FF6FF7101EA8B
:104090000020CF4988804FF45C40FEF76BFFFEF7AD
:1040A0007CFFCB4989880843C949888008468088B5
:1040B000B0F5004F02D145F210508880C448808886
:1040C00045F21051884223D0A120FEF753FFFEF79E
:1040D00064FFBF498880FEF760FFBD4988800846BD
:1040E00080884FF6FF7101EA0020B9498880FEF709
:1040F00054FFB74989880843B549888008468088B5
:1041000045F26171884203D141F66310B04988805D
:10411000AF48808849F24131884211D0AC4880884C
:1041200045F2103188420BD0A948808845F21051E1
:10413000884205D0A648808841F6631188421DD187
:10414000A448006820F00F004FF02041C1F81C0186
:104150000846D0F81C0120F47060C1F81C01084624
:10416000D0F81C0140F00300C1F81C010846D0F84B
:104170001C0140F40070C1F81C0128E094488088BC
:1041800046F60401884205D0914880884CF20551DA
:1041900088421CD18F48006820F00F004FF020416A
:1041A000C1F81C010846D0F81C0120F47060C1F869
:1041B0001C010846D0F81C0140F00A00C1F81C019F
:1041C0000846D0F81C0140F44060C1F81C0180484A
:1041D000808849F2413188427ED1CF20FEF7CAFE65
:1041E0000020FEF7D0FE2098401C2090C120FEF752
:1041F000CAFE3020FEF7C7FEED20FEF7BBFE6420AE
:10420000FEF7C1FE0320FEF7BEFE1220FEF7BBFE46
:104210008120FEF7B8FEE820FEF7ACFE8520FEF711
:10422000B2FE1020FEF7AFFE7A20FEF7ACFECB20E8
:10423000FEF7A0FE3920FEF7A6FE2C20FEF7A3FE17
:104240000020FEF7A0FE3420FEF79DFE0220FEF7C0
:104250009AFEF720FEF78EFE2020FEF794FEEA205D
:10426000FEF788FE0020FEF78EFE0020FEF78BFE94
:10427000C020FEF77FFE1B20FEF785FEC120FEF763
:1042800079FE0120FEF77FFEC520FEF773FE302089
:10429000FEF779FE3020FEF776FEC720FEF76AFEB5
:1042A000B720FEF770FE3620FEF764FE4820FEF7CA
:1042B0006AFE3A20FEF75EFE5520FEF764FEB1204E
:1042C000FEF758FE0020FEF75EFE1A20FEF75BFEAA
:1042D000B620FEF74FFE00E0A0E00A20FEF753FEF6
:1042E000A220FEF750FEF220FEF744FE0020FEF76B
:1042F0004AFE2620FEF73EFE0120FEF744FEE020A7
:10430000FEF738FE0F20FEF73EFE2A20FEF73BFEAA
:104310002820FEF738FE0820FEF735FE0E20FEF7B7
:1043200032FE0820FEF72FFE5420FEF72CFEA920B7
:10433000FEF729FE4320FEF726FE0A20FEF723FEA5
:104340000F20FEF720FE0020FEF71DFE0020FEF7E6
:104350001AFE0020FEF717FE0020FEF714FEE120F3
:10436000FEF708FE0020FEF70EFE1520FEF70BFEFE
:104370001720FEF708FE0720FEF705FE1120FEF7C6
:1043800002FE0620FEF7FFFD2B20FEF7FCFD562067
:10439000FEF7F9FD3C20FEF7F6FD0520FEF7F3FDE4
:1043A0001020FEF7F0FD0F20FEF7EDFD3F20FEF799
:1043B000EAFD3F20FEF7E7FD0F20FEF7E4FD2B208E
:1043C000FEF7D8FD0020FEF7DEFD002004E000002F
:1043D0001C1500201C0100A0FEF7D5FD0120FEF7F2
:1043E000D2FD3F20FEF7CFFD2A20FEF7C3FD0020BF
:1043F000FEF7C9FD0020FEF7C6FD0020FEF7C3FD55
:10440000EF20FEF7C0FD1120FEF7B4FD782007F085
:104410003CF92920FEF7AEFD03F01DB9FE48808867
:1044200046F6040188427CD11120FEF7A3FD14203A
:1044300007F02BF9D020FEF79DFD0720FEF7A3FD26
:104440004220FEF7A0FD1D20FEF79DFDD120FEF7C6
:1044500091FD0020FEF797FD1A20FEF794FD09203C
:10446000FEF791FDD220FEF785FD0120FEF78BFDC2
:104470002220FEF788FDC020FEF77CFD1020FEF70D
:1044800082FD3B20FEF77FFD0020FEF77CFD022031
:10449000FEF779FD1120FEF776FDC520FEF76AFDD7
:1044A0000320FEF770FDC820FEF764FD0020FEF734
:1044B0006AFD2520FEF767FD2120FEF764FD05203B
:1044C000FEF761FD0020FEF75EFD0A20FEF75BFDB2
:1044D0006520FEF758FD2520FEF755FD7720FEF7F5
:1044E00052FD5020FEF74FFD0F20FEF74CFD00203F
:1044F000FEF749FDF820FEF73DFD0120FEF743FDE4
:10450000FE20FEF737FD0020FEF73DFD0220FEF7FE
:104510003AFD2020FEF72EFD3620FEF72BFD082069
:1045200000E02CE0FEF72FFD3A20FEF723FD55209A
:10453000FEF729FD2B20FEF71DFD0020FEF723FDD1
:104540000020FEF720FD0120FEF71DFD3F20FEF7B5
:104550001AFD2A20FEF70EFD0020FEF714FD0020B4
:10456000FEF711FD0120FEF70EFDDF20FEF70BFD2B
:10457000782007F08AF82920FEF7FCFC4CE7A648D3
:10458000808845F21031884240F07C87ED20FEF7AC
:10459000F1FC0120FEF7F7FCFE20FEF7F4FCEE2014
:1045A000FEF7E8FCDE20FEF7EEFC2120FEF7EBFC38
:1045B000F120FEF7DFFC0120FEF7E5FCDF20FEF72F
:1045C000D9FC1020FEF7DFFCC420FEF7D3FC8F20BF
:1045D000FEF7D9FCC620FEF7CDFC0020FEF7D3FC89
:1045E000E220FEF7D0FCE220FEF7CDFCE220FEF751
:1045F000CAFCBF20FEF7BEFCAA20FEF7C4FCB02018
:10460000FEF7B8FC0D20FEF7BEFC0020FEF7BBFC59
:104610000D20FEF7B8FC0020FEF7B5FC1120FEF7D8
:10462000B2FC0020FEF7AFFC1920FEF7ACFC002026
:10463000FEF7A9FC2120FEF7A6FC0020FEF7A3FC54
:104640002D20FEF7A0FC0020FEF79DFC3D20FEF78C
:104650009AFC0020FEF797FC5D20FEF794FC0020FA
:10466000FEF791FC5D20FEF78EFC0020FEF78BFC30
:10467000B120FEF77FFC8020FEF785FC0020FEF7CE
:1046800082FC8B20FEF77FFC0020FEF77CFC96204E
:10469000FEF779FC0020FEF776FCB220FEF76AFCFC
:1046A0000020FEF770FC0020FEF76DFC0220FEF7F4
:1046B0006AFC0020FEF767FC0320FEF764FC002084
:1046C000FEF761FCB320FEF755FC0020FEF75BFC13
:1046D0000020FEF758FC0020FEF755FC0020FEF7F6
:1046E00052FC0020FEF74FFC0020FEF74CFC00209F
:1046F000FEF749FC0020FEF746FC0020FEF743FCD5
:104700000020FEF740FC0020FEF73DFC0020FEF7F5
:104710003AFC0020FEF737FC0020FEF734FC0020B6
:10472000FEF731FC0020FEF72EFC0020FEF72BFCEC
:104730000020FEF728FC0020FEF725FC0020FEF7F5
:1047400022FC0020FEF71FFC0020FEF71CFC0020CE
:10475000FEF719FC0020FEF716FCB420FEF70AFC59
:104760008B20FEF710FC0020FEF70DFC9620FEF7D4
:104770000AFC0020FEF707FCA120FEF704FC002045
:10478000FEF701FCB520FEF7F5FB0220FEF7FBFB70
:104790000020FEF7F8FB0320FEF7F5FB0020FEF7F4
:1047A000F2FB0420FEF7EFFB0020FEF7ECFBB62047
:1047B000FEF7E0FB0020FEF7E6FB0020FEF7E3FB40
:1047C000B720FEF7D7FB0020FEF7DDFB0020FEF749
:1047D000DAFB3F20FEF7D7FB0020FEF7D4FB5E207C
:1047E000FEF7D1FB0020FEF7CEFB6420FEF7CBFBEB
:1047F0000020FEF7C8FB8C20FEF7C5FB0020FEF76B
:10480000C2FBAC20FEF7BFFB0020FEF7BCFBDC20A8
:10481000FEF7B9FB002001E01C150020FEF7B3FBFA
:104820007020FEF7B0FB0020FEF7ADFB9020FEF7F6
:10483000AAFB0020FEF7A7FBEB20FEF7A4FB00205D
:10484000FEF7A1FBDC20FEF79EFB0020FEF79BFBA2
:10485000B820FEF78FFB0020FEF795FB0020FEF747
:1048600092FB0020FEF78FFB0020FEF78CFB002060
:10487000FEF789FB0020FEF786FB0020FEF783FB96
:104880000020FEF780FBBA20FEF774FB2420FEF721
:104890007AFB0020FEF777FB0020FEF774FB002078
:1048A000FEF771FBC120FEF765FB2020FEF76BFBD6
:1048B0000020FEF768FB5420FEF765FB0020FEF7A2
:1048C00062FBFF20FEF75FFB0020FEF75CFBC220CF
:1048D000FEF750FB0A20FEF756FB0020FEF753FBC5
:1048E0000420FEF750FB0020FEF74DFBC320FEF72F
:1048F00041FB3C20FEF747FB0020FEF744FB3A203B
:10490000FEF741FB0020FEF73EFB3920FEF73BFBA4
:104910000020FEF738FB3720FEF735FB0020FEF7BE
:1049200032FB3C20FEF72FFB0020FEF72CFB36204D
:10493000FEF729FB0020FEF726FB3220FEF723FBC3
:104940000020FEF720FB2F20FEF71DFB0020FEF7C6
:104950001AFB2C20FEF717FB0020FEF714FB292082
:10496000FEF711FB0020FEF70EFB2620FEF70BFBE7
:104970000020FEF708FB2420FEF705FB0020FEF7D1
:1049800002FB2420FEF7FFFA0020FEF7FCFA2320AA
:10499000FEF7F9FA0020FEF7F6FA3C20FEF7F3FAEC
:1049A0000020FEF7F0FA3620FEF7EDFA0020FEF7C1
:1049B000EAFA3220FEF7E7FA0020FEF7E4FA2F20A9
:1049C000FEF7E1FA0020FEF7DEFA2C20FEF7DBFA14
:1049D0000020FEF7D8FA2920FEF7D5FA0020FEF7CE
:1049E000D2FA2620FEF7CFFA0020FEF7CCFA2420D8
:1049F000FEF7C9FA0020FEF7C6FA2420FEF7C3FA34
:104A00000020FEF7C0FA2320FEF7BDFA0020FEF7D3
:104A1000BAFAC420FEF7AEFA6220FEF7B4FA00201C
:104A2000FEF7B1FA0520FEF7AEFA0020FEF7ABFA6A
:104A30008420FEF7A8FA0020FEF7A5FAF020FEF782
:104A4000A2FA0020FEF79FFA1820FEF79CFA002039
:104A5000FEF799FAA420FEF796FA0020FEF793FAE3
:104A60001820FEF790FA0020FEF78DFA5020FEF78E
:104A70008AFA0020FEF787FA0C20FEF784FA00205D
:104A8000FEF781FA1720FEF77EFA0020FEF77BFA88
:104A90009520FEF778FA0020FEF775FAF320FEF76E
:104AA00072FA0020FEF76FFAE620FEF76CFA00209B
:104AB000FEF769FAC520FEF75DFA3220FEF763FAC9
:104AC0000020FEF760FA4420FEF75DFA0020FEF7B2
:104AD0005AFA6520FEF757FA0020FEF754FA7620BE
:104AE000FEF751FA0020FEF74EFA8820FEF74BFA47
:104AF0000020FEF748FAC620FEF73CFA2020FEF719
:104B000042FA0020FEF73FFA1720FEF73CFA002099
:104B1000FEF739FA0120FEF736FA0020FEF733FAE5
:104B2000C720FEF727FA0020FEF72DFA0020FEF737
:104B30002AFA0020FEF727FA0020FEF724FAC82000
:104B4000FEF718FA0020FEF71EFA0020FEF71BFA07
:104B50000020FEF718FA0020FEF715FAC920FEF72C
:104B600009FA0020FEF70FFA0020FEF70CFA0020E9
:104B7000FEF709FA0020FEF706FA0020FEF703FA16
:104B80000020FEF700FA0020FEF7FDF90020FEF7F6
:104B9000FAF90020FEF7F7F90020FEF7F4F90020FB
:104BA000FEF7F1F90020FEF7EEF90020FEF7EBF931
:104BB0000020FEF7E8F90020FEF7E5F90020FEF7F7
:104BC000E2F9E020FEF7D6F91620FEF7DCF9002026
:104BD000FEF7D9F91C20FEF7D6F90020FEF7D3F92D
:104BE0002120FEF7D0F90020FEF7CDF93620FEF7A0
:104BF000CAF90020FEF7C7F94620FEF7C4F90020E5
:104C0000FEF7C1F95220FEF7BEF90020FEF7BBF90E
:104C10006420FEF7B8F90020FEF7B5F97A20FEF718
:104C2000B2F90020FEF7AFF98B20FEF7ACF90020B7
:104C3000FEF7A9F99920FEF7A6F90020FEF7A3F9DF
:104C4000A820FEF7A0F90020FEF79DF9B920FEF795
:104C50009AF90020FEF797F9C420FEF794F9002096
:104C6000FEF791F9CA20FEF78EF90020FEF78BF9C6
:104C7000D220FEF788F90020FEF785F9D920FEF74B
:104C800082F90020FEF77FF9E020FEF77CF9002092
:104C9000FEF779F9F320FEF776F90020FEF773F9B5
:104CA000E120FEF767F91620FEF76DF90020FEF708
:104CB0006AF91C20FEF767F90020FEF764F922204C
:104CC000FEF761F90020FEF75EF93620FEF75BF98A
:104CD0000020FEF758F94520FEF755F90020FEF7B1
:104CE00052F95220FEF74FF90020FEF74CF96420EC
:104CF000FEF749F90020FEF746F97A20FEF743F95E
:104D00000020FEF740F98B20FEF73DF90020FEF76A
:104D10003AF99920FEF737F90020FEF734F9A82078
:104D2000FEF731F90020FEF72EF9B920FEF72BF936
:104D30000020FEF728F9C420FEF725F90020FEF731
:104D400022F9CA20FEF71FF90020FEF71CF9D22035
:104D5000FEF719F90020FEF716F9D820FEF713F92F
:104D60000020FEF710F9E020FEF70DF90020FEF715
:104D70000AF9F320FEF707F90020FEF704F9E22014
:104D8000FEF7F8F80520FEF7FEF80020FEF7FBF826
:104D90000B20FEF7F8F80020FEF7F5F81B20FEF7D1
:104DA000F2F80020FEF7EFF83420FEF7ECF80020D0
:104DB000FEF7E9F84420FEF7E6F80020FEF7E3F8F6
:104DC0004F20FEF7E0F80020FEF7DDF86120FEF747
:104DD000DAF80020FEF7D7F87920FEF7D4F80020A3
:104DE000FEF7D1F88820FEF7CEF80020FEF7CBF8CA
:104DF0009720FEF7C8F80020FEF7C5F8A620FEF7BA
:104E0000C2F80020FEF7BFF8B720FEF7BCF800207C
:104E1000FEF7B9F8C220FEF7B6F80020FEF7B3F8A7
:104E2000C720FEF7B0F80020FEF7ADF8D120FEF75E
:104E3000AAF80020FEF7A7F8D620FEF7A4F8002075
:104E4000FEF7A1F8DD20FEF79EF80020FEF79BF8A4
:104E5000F320FEF798F80020FEF795F8E320FEF720
:104E600089F80520FEF78FF80020FEF78CF80A205D
:104E7000FEF789F80020FEF786F81C20FEF783F87D
:104E80000020FEF780F83320FEF77DF80020FEF7C3
:104E90007AF84420FEF777F80020FEF774F85020E7
:104EA000FEF771F80020FEF76EF86220FEF76BF84F
:104EB0000020FEF768F87820FEF765F80020FEF77E
:104EC00062F88820FEF75FF80020FEF75CF8972074
:104ED000FEF759F80020FEF756F8A620FEF753F823
:104EE0000020FEF750F8B720FEF74DF80020FEF73F
:104EF0004AF8C220FEF747F80020FEF744F8C72022
:104F0000FEF741F80020FEF73EF8D120FEF73BF80F
:104F10000020FEF738F8D520FEF735F80020FEF720
:104F200032F8DD20FEF72FF80020FEF72CF8F320F2
:104F3000FEF729F80020FEF726F8E420FEF71AF81D
:104F40000120FEF720F80020FEF71DF80120FEF7F3
:104F50001AF80020FEF717F80220FEF714F80020D8
:104F6000FEF711F82A20FEF70EF80020FEF70BF8E6
:104F70003C20FEF708F80020FEF705F84B20FEF76E
:104F800002F80020FDF7FFFF5D20FDF7FCFF002089
:104F9000FDF7F9FF7420FDF7F6FF0020FDF7F3FFA2
:104FA0008420FDF7F0FF0020FDF7EDFF9320FDF7D3
:104FB000EAFF0020FDF7E7FFA220FDF7E4FF002055
:104FC000FDF7E1FFB320FDF7DEFF0020FDF7DBFF7B
:104FD000BE20FDF7D8FF0020FDF7D5FFC420FDF768
:104FE000D2FF0020FDF7CFFFCD20FDF7CCFF002042
:104FF000FDF7C9FFD320FDF7C6FF0020FDF7C3FF73
:10500000DD20FDF7C0FF0020FDF7BDFFF320FDF719
:10501000BAFF0020FDF7B7FFE520FDF7ABFF00204A
:10502000FDF7B1FF0020FDF7AEFF0020FDF7ABFF5D
:105030000020FDF7A8FF0220FDF7A5FF0020FDF7E7
:10504000A2FF2920FDF79FFF0020FDF79CFF3C20D9
:10505000FDF799FF0020FDF796FF4B20FDF793FF2A
:105060000020FDF790FF5D20FDF78DFF0020FDF78C
:105070008AFF7420FDF787FF0020FDF784FF84205E
:10508000FDF781FF0020FDF77EFF9320FDF77BFFFA
:105090000020FDF778FFA220FDF775FF0020FDF747
:1050A00072FFB320FDF76FFF0020FDF76CFFBE20FD
:1050B000FDF769FF0020FDF766FFC420FDF763FFE1
:1050C0000020FDF760FFCD20FDF75DFF0020FDF71C
:1050D0005AFFD320FDF757FF0020FDF754FFDC20D7
:1050E000FDF751FF0020FDF74EFFF320FDF74BFFCA
:1050F0000020FDF748FFE620FDF73CFF1120FDF7FB
:1051000042FF0020FDF73FFF3420FDF73CFF002069
:10511000FDF739FF5620FDF736FF0020FDF733FF7E
:105120007620FDF730FF0020FDF72DFF7720FDF7FB
:105130002AFF0020FDF727FF6620FDF724FF00204F
:10514000FDF721FF8820FDF71EFF0020FDF71BFF64
:105150009920FDF718FF0020FDF715FFBB20FDF794
:1051600012FF0020FDF70FFF9920FDF70CFF002034
:10517000FDF709FF6620FDF706FF0020FDF703FF9E
:105180005520FDF700FF0020FDF7FDFE5520FDF73F
:10519000FAFE0020FDF7F7FE4520FDF7F4FE0020A3
:1051A000FDF7F1FE4320FDF7EEFE0020FDF7EBFEDC
:1051B0004420FDF7E8FE0020FDF7E5FEE720FDF7BF
:1051C000D9FE3220FDF7DFFE0020FDF7DCFE552082
:1051D000FDF7D9FE0020FDF7D6FE7620FDF7D3FEC1
:1051E0000020FDF7D0FE6620FDF7CDFE0020FDF784
:1051F000CAFE6720FDF7C7FE0020FDF7C4FE67204A
:10520000FDF7C1FE0020FDF7BEFE8720FDF7BBFEC7
:105210000020FDF7B8FE9920FDF7B5FE0020FDF750
:10522000B2FEBB20FDF7AFFE0020FDF7ACFE9920DB
:10523000FDF7A9FE0020FDF7A6FE7720FDF7A3FEEF
:105240000020FDF7A0FE4420FDF79DFE0020FDF7A5
:105250009AFE5620FDF797FE0020FDF794FE2320CE
:10526000FDF791FE0020FDF78EFE3320FDF78BFE4B
:105270000020FDF788FE4520FDF785FE0020FDF7A4
:1052800082FEE820FDF776FE0020FDF77CFE002080
:10529000FDF779FE9920FDF776FE0020FDF773FEFD
:1052A0008720FDF770FE0020FDF76DFE8820FDF7DA
:1052B0006AFE0020FDF767FE7720FDF764FE002000
:1052C000FDF761FE6620FDF75EFE0020FDF75BFE48
:1052D0008820FDF758FE0020FDF755FEAA20FDF7B7
:1052E00052FE0020FDF74FFEBB20FDF74CFE0020D4
:1052F000FDF749FE9920FDF746FE0020FDF743FE2D
:105300006620FDF740FE0020FDF73DFE5520FDF72D
:105310003AFE0020FDF737FE5520FDF734FE002051
:10532000FDF731FE4420FDF72EFE0020FDF72BFE99
:105330004420FDF728FE0020FDF725FE5520FDF74F
:1053400022FE0020FDF71FFEE920FDF713FEAA2034
:10535000FDF719FE0020FDF716FE0020FDF713FEF5
:105360000020FDF710FE0020FDF704FEAA20FDF747
:105370000AFECF20FDF7FEFD0020FDF704FE002011
:10538000FDF701FE0020FDF7FEFD0020FDF7FBFD0F
:105390000020FDF7F8FD0020FDF7F5FD0020FDF7EA
:1053A000F2FD0020FDF7EFFD0020FDF7ECFD0020F1
:1053B000FDF7E9FD0020FDF7E6FD0020FDF7E3FD28
:1053C0000020FDF7E0FD0020FDF7DDFD0020FDF7EA
:1053D000DAFD0020FDF7D7FD0020FDF7D4FDF02019
:1053E000FDF7C8FD0020FDF7CEFD5020FDF7CBFDF9
:1053F0000020FDF7C8FD0020FDF7C5FD0020FDF7EA
:10540000C2FDF320FDF7B6FD0020FDF7BCFDF9203D
:10541000FDF7B0FD0620FDF7B6FD1020FDF7B3FD4A
:105420002920FDF7B0FD0020FDF7ADFD3A20FDF786
:10543000A1FD5520FDF7A7FD1120FDF79BFD642080
:1054400006F023F92920FDF795FD3520FDF792FDA3
:105450000020FDF798FD5120FDF78CFDFF20FDF7A2
:1054600092FD5320FDF786FD2C20FDF78CFD552085
:10547000FDF780FD8220FDF786FD2C20FDF77AFDEB
:1054800002F0E9B8FE48808845F2105188427DD18B
:1054900055214FF47040FDF788FDAA214FF201001D
:1054A000FDF783FD52214FF20200FDF77EFD08213A
:1054B0004FF20300FDF779FD01214FF20400FDF7E3
:1054C00074FD0D214FF43040FDF76FFD0D214BF2BF
:1054D0000100FDF76AFD0D214BF20200FDF765FDAD
:1054E00034214FF43640FDF760FD34214BF201606A
:1054F000FDF75BFD34214BF20260FDF756FD0D21F7
:105500004FF43140FDF751FD0D214BF20110FDF735
:105510004CFD0D214BF20210FDF747FD34214FF4F5
:105520003740FDF742FD34214BF20170FDF73DFDA0
:1055300034214BF20270FDF738FD00214FF4324068
:10554000FDF733FD00214BF20120FDF72EFD002178
:105550004BF20220FDF729FD24214FF43840FDF7DE
:1055600024FD24214BF60100FDF71FFD24214BF6FD
:105570000200FDF71AFD01214FF43F40FDF715FD34
:105580000F214FF43340FDF710FD00E0FDE30F2144
:105590004BF20130FDF709FD0F214BF20230FDF710
:1055A00004FD34214FF43940FDF7FFFC34214BF664
:1055B0000110FDF7FAFC34214BF60210FDF7F5FC63
:1055C00008214FF43540FDF7F0FC08214BF2015063
:1055D000FDF7EBFC08214BF20250FDF7E6FC03213E
:1055E0004FF44240FDF7E1FC24214FF43A40FDF72F
:1055F000DCFC24214BF60120FDF7D7FC24214BF6DF
:105600000220FDF7D2FC00214FF43C40FDF7CDFC19
:1056100078214BF60140FDF7C8FC00214BF6024013
:10562000FDF7C3FC00214FF43D40FDF7BEFC78219F
:105630004BF60150FDF7B9FC00214BF60250FDF787
:10564000B4FC00214FF43E40FDF7AFFC64214BF663
:105650000160FDF7AAFC00214FF45140FDF7A5FCC5
:1056600033214DF20110FDF7A0FC00214DF2021094
:10567000FDF79BFC34214DF20310FDF796FC002151
:105680004DF20410FDF791FC3A214DF20510FDF7A3
:105690008CFC00214DF20610FDF787FC4A214DF2EB
:1056A0000710FDF782FC00214DF20810FDF77DFC8C
:1056B0005C214DF20910FDF778FC00214DF20A1033
:1056C000FDF773FC81214DF20B10FDF76EFC0021FC
:1056D0004DF20C10FDF769FCA6214DF20D10FDF7FF
:1056E00064FC00214DF20E10FDF75FFCE5214DF248
:1056F0000F10FDF75AFC01214DF21010FDF755FC7B
:1057000013214DF21110FDF750FC01214DF2121042
:10571000FDF74BFC54214DF21310FDF746FC01211F
:105720004DF21410FDF741FC82214DF21510FDF7EA
:105730003CFC01214DF21610FDF737FCCA214DF259
:105740001710FDF732FC02214DF21810FDF72DFC69
:1057500000214DF21910FDF728FC02214DF21A101C
:10576000FDF723FC01214DF21B10FDF71EFC022169
:105770004DF21C10FDF719FC34214DF21D10FDF700
:1057800014FC02214DF21E10FDF70FFC67214DF2B3
:105790001F10FDF70AFC02214DF22010FDF705FC59
:1057A00084214DF22110FDF700FC02214DF2221060
:1057B000FDF7FBFBA4214DF22310FDF7F6FB0221C0
:1057C0004DF22410FDF7F1FBB7214DF22510FDF746
:1057D000ECFB02214DF22610FDF7E7FBCF214DF245
:1057E0002710FDF7E2FB02214DF22810FDF7DDFB4B
:1057F000DE214DF22910FDF7D8FB02214DF22A10CF
:10580000FDF7D3FBF2214DF22B10FDF7CEFB022169
:105810004DF22C10FDF7C9FBFE214DF22D10FDF7C6
:10582000C4FB03214DF22E10FDF7BFFB10214DF2FA
:105830002F10FDF7BAFB03214DF23010FDF7B5FB39
:1058400033214DF23110FDF7B0FB03214DF2321040
:10585000FDF7ABFB6D214DF23310FDF7A6FB0021E8
:105860004FF45240FDF7A1FB33214DF20120FDF72B
:105870009CFB00214DF20220FDF797FB342101E053
:105880001C1500204DF20320FDF78FFB00214DF287
:105890000420FDF78AFB3A214DF20520FDF785FB38
:1058A00000214DF20620FDF780FB4A214DF2072032
:1058B000FDF77BFB00214DF20820FDF776FB5C2114
:1058C0004DF20920FDF771FB00214DF20A20FDF792
:1058D0006CFB81214DF20B20FDF767FB00214DF29F
:1058E0000C20FDF762FBA6214DF20D20FDF75DFBBC
:1058F00000214DF20E20FDF758FBE5214DF20F205F
:10590000FDF753FB01214DF21020FDF74EFB132153
:105910004DF21120FDF749FB01214DF21220FDF758
:1059200044FB54214DF21320FDF73FFB01214DF2C2
:105930001420FDF73AFB82214DF21520FDF735FBCF
:1059400001214DF21620FDF730FBCA214DF2172040
:10595000FDF72BFB02214DF21820FDF726FB00215D
:105960004DF21920FDF721FB02214DF21A20FDF71F
:105970001CFB01214DF21B20FDF717FB02214DF20C
:105980001C20FDF712FB34214DF21D20FDF70DFB0D
:1059900002214DF21E20FDF708FB67214DF21F206A
:1059A000FDF703FB02214DF22020FDF7FEFA8421D2
:1059B0004DF22120FDF7F9FA02214DF22220FDF7E8
:1059C000F4FAA4214DF22320FDF7EFFA02214DF263
:1059D0002420FDF7EAFAB7214DF22520FDF7E5FA7C
:1059E00002214DF22620FDF7E0FACF214DF22720CB
:1059F000FDF7DBFA02214DF22820FDF7D6FADE2171
:105A00004DF22920FDF7D1FA02214DF22A20FDF7AF
:105A1000CCFAF2214DF22B20FDF7C7FA02214DF20C
:105A20002C20FDF7C2FAFE214DF22D20FDF7BDFA24
:105A300003214DF22E20FDF7B8FA10214DF22F2050
:105A4000FDF7B3FA03214DF23020FDF7AEFA332112
:105A50004DF23120FDF7A9FA03214DF23220FDF776
:105A6000A4FA6D214DF23320FDF79FFA00214FF487
:105A70005340FDF79AFA33214DF20130FDF795FAC4
:105A800000214DF20230FDF790FA34214DF203303F
:105A9000FDF78BFA00214DF20430FDF786FA3A212A
:105AA0004DF20530FDF781FA00214DF20630FDF789
:105AB0007CFA4A214DF20730FDF777FA00214DF2CA
:105AC0000830FDF772FA5C214DF20930FDF76DFAEE
:105AD00000214DF20A30FDF768FA81214DF20B30BA
